:100000000C9456000C9473000C9473000C947300C1
:100010000C9473000C9473000C9473000C94730094
:100020000C9473000C9473000C9473000C94730084
:100030000C9473000C9473000C9473000C94730074
:100040000C9473000C9475000C9473000C94730062
:100050000C9473000C9473000C9473000C94730054
:100060000C9473000C9473000C9473000C94730044
:100070000C9473000C9473000C9473000C94730034
:100080000C9473000C9473000C9473000C94730024
:100090000C9473000C9473000C9473000C94730014
:1000A0000C9473000C9473000C94730011241FBE05
:1000B000CFEFDAE0DEBFCDBF11E0A0E0B1E0E2E3D8
:1000C000FFE002C005900D92A632B107D9F721E0FA
:1000D000A6E2B1E001C01D92AA33B207E1F70E9487
:1000E00093010C9497070C9400001F920F920FB687
:1000F0000F9211248F939F93AF93BF9380913601FA
:1001000090913701A0913801B09139010196A11D5C
:10011000B11D8093360190933701A0933801B093BD
:100120003901BF91AF919F918F910F900FBE0F90AA
:100130001F90189520E43FE140E050E00E947D04CC
:10014000E1E8F0E080818A608083BB27A52F942FAF
:10015000832F8093890020938800EFE6F0E0808170
:10016000826080830895F89421E0222351F0609109
:10017000360170913701809138019091390120E06A
:10018000F4CF789408958770ECE7F0E09081907F49
:10019000892B8083EAE7F0E080818064808380910E
:1001A0007A0086FDFCCF80917800909179000895C7
:1001B00080E480937C0087E880937A00089540E093
:1001C00050E04817590768F420E030E0253764E034
:1001D000360720F400002F5F3F4FF8CF4F5F5F4F8F
:1001E000F0CF089595B19F70282F207F922B95B95D
:1001F0009BB19B7F9BB99BB198609BB900009BB161
:10020000977F9BB932E43A95F1F700C025B130E110
:10021000839FC0011124922F9F70892B85B98BB1C8
:1002200088608BB900008BB1877F8BB983EF91E039
:100230000197F1F700C000000895811180E4860F56
:1002400080680E94F2000895DC0140E050E0FD016A
:1002500001900020E9F73197EA1BFB0B4E175F076F
:1002600080F585B1FD01E40FF51F90818F70907FBF
:10027000982B95B98BB184608BB98BB188608BB9A1
:1002800000008BB1877F8BB962E46A95F1F700C0FB
:1002900085B1908160E1969F900111248F70282B89
:1002A00025B99BB198609BB900009BB1977F9BB922
:1002B00083EF91E00197F1F700C000004F5F5F4FBF
:1002C000C6CF089584B1806F84B98AB18C608AB931
:1002D00085EA9EE00197F1F700C0000082E00E94ED
:1002E000F20088E20E94F2008CE00E94F20086E0B8
:1002F0000E94F20081E00E94F20083EF91E00197FA
:10030000F1F700C0000089E30E94F20080E70E943C
:10031000F20088E30E94F20083EF91E00197F1F789
:1003200000C000000895CF93DF93CDB7DEB7649788
:100330000FB6F894DEBF0FBECDBFE1E6F0E080E877
:100340008083108287B1806887B988B18F7788B938
:100350000E94D80060E074E284EF90E00E949A006E
:100360000E946201FE01319684E1DF011D928A95AF
:10037000E9F710922A0110922B0110922C01109291
:100380002D0110922601109227011092280110923F
:10039000290110922E0110922F011092300110921B
:1003A000310188B1806888B90E94B300609332013E
:1003B0007093330180933401909335010838B2E093
:1003C0001B0728F487E00E94C3008C01F7CF0E942E
:1003D000B300C0903201D0903301E0903401F0902E
:1003E0003501DC01CB018C199D09AE09BF09809351
:1003F0002E0190932F01A0933001B09331016091B1
:100400002E0170912F0180913001909131010E9455
:10041000590320E030E44CE156E40E94B10220E0B0
:1004200030E04AE754E40E94EC0360932A017093A1
:100430002B0180932C0190932D0180E091E00E948C
:10044000240160E081E00E941D0160912A01709109
:100450002B0180912C0190912D0120E030E040E8AB
:100460005FE30E94E70318163CF560912A01709142
:100470002B0180912C0190912D010E9423037F93E9
:100480006F9389E091E09F938F931F9284E18F9304
:10049000CE0101967C019F938F930E949F04C70118
:1004A0000E94240184EF91E00E94DF000FB6F894CF
:1004B000DEBF0FBECDBF3CC060912A0170912B0101
:1004C00080912C0190912D0120E030E04AE754E426
:1004D0000E94EC036093260170932701809328010A
:1004E0009093290160912601709127018091280144
:1004F000909129010E9423037F936F9388E191E0FB
:100500009F938F931F9284E18F93CE0101967C017C
:100510009F938F930E949F04C7010E94240184EF40
:1005200091E00E94DF000FB6F894DEBF0FBECDBF92
:1005300060E080E00E941D0188B18F7788B984B1A6
:10054000806484B985B18F7B85B90115110529F0C7
:1005500087E00E94C3008C01F8CF84B18F7B84B9FF
:10056000FFCE0E94C5020C94AD030E94A60358F072
:100570000E949F0340F029F45F3F29F00C949603FA
:1005800051110C94E1030C949C030E94BE0368F388
:100590009923B1F3552391F3951B550BBB27AA273C
:1005A00062177307840738F09F5F5F4F220F331F76
:1005B000441FAA1FA9F335D00E2E3AF0E0E832D03E
:1005C00091505040E695001CCAF72BD0FE2F29D041
:1005D000660F771F881FBB1F261737074807AB0713
:1005E000B0E809F0BB0B802DBF01FF2793585F4F88
:1005F0003AF09E3F510578F00C9496030C94E10379
:100600005F3FE4F3983ED4F3869577956795B79569
:10061000F7959F5FC9F7880F911D9695879597F974
:100620000895E1E0660F771F881FBB1F62177307ED
:100630008407BA0720F0621B730B840BBA0BEE1F02
:1006400088F7E09508950E942A036894B1110C94EC
:10065000E10308950E94C60388F09F5798F0B92FD0
:100660009927B751B0F0E1F0660F771F881F991FE7
:100670001AF0BA95C9F714C0B13091F00E94E003A6
:10068000B1E008950C94E003672F782F8827B85FB6
:1006900039F0B93FCCF3869577956795B395D9F73F
:1006A0003EF490958095709561957F4F8F4F9F4F49
:1006B0000895E89409C097FB3EF490958095709555
:1006C00061957F4F8F4F9F4F9923A9F0F92F96E99E
:1006D000BB279395F695879577956795B795F11113
:1006E000F8CFFAF4BB0F11F460FF1BC06F5F7F4FB0
:1006F0008F4F9F4F16C0882311F096E911C07723C2
:1007000021F09EE8872F762F05C0662371F096E8CA
:10071000862F70E060E02AF09A95660F771F881F99
:10072000DAF7880F9695879597F9089597F99F6757
:1007300080E870E060E008959FEF80EC0895002469
:100740000A941616170618060906089500240A9436
:1007500012161306140605060895092E0394000CBC
:1007600011F4882352F0BB0F40F4BF2B11F460FF4B
:1007700004C06F5F7F4F8F4F9F4F089557FD905874
:10078000440F551F59F05F3F71F04795880F97FB55
:10079000991F61F09F3F79F087950895121613060F
:1007A0001406551FF2CF4695F1DF08C0161617063E
:1007B0001806991FF1CF8695710561050894089573
:1007C000E894BB2766277727CB0197F908950E9405
:1007D000590408F48FEF08950E94FF030C94AD03B1
:1007E0000E949F0338F00E94A60320F0952311F089
:1007F0000C9496030C949C0311240C94E1030E9426
:10080000BE0370F3959FC1F3950F50E0551F629F93
:10081000F001729FBB27F00DB11D639FAA27F00D59
:10082000B11DAA1F649F6627B00DA11D661F829F80
:100830002227B00DA11D621F739FB00DA11D621F65
:10084000839FA00D611D221F749F3327A00D611D82
:10085000231F849F600D211D822F762F6A2F112464
:100860009F5750409AF0F1F088234AF0EE0FFF1F97
:10087000BB1F661F771F881F91505040A9F79E3FEE
:10088000510580F00C9496030C94E1035F3FE4F370
:10089000983ED4F3869577956795B795F795E79544
:1008A0009F5FC1F7FE2B880F911D9695879597F94D
:1008B0000895990F0008550FAA0BE0E8FEEF1616F1
:1008C0001706E807F907C0F012161306E407F50744
:1008D00098F0621B730B840B950B39F40A2661F0B8
:1008E000232B242B252B21F408950A2609F4A1405B
:1008F000A6958FEF811D811D0895A1E21A2EAA1BD6
:10090000BB1BFD010DC0AA1FBB1FEE1FFF1FA217BF
:10091000B307E407F50720F0A21BB30BE40BF50BBC
:10092000661F771F881F991F1A9469F76095709545
:10093000809590959B01AC01BD01CF010895AEE07B
:10094000B0E0E5EAF4E00C946E070D891E898F890A
:10095000988D26E02C831A83098397FF02C080E0DC
:1009600090E801979E838D83AE01455E5F4F698D50
:100970007A8DCE0101960E94CF044D815E8157FD94
:100980000AC02F813885421753070CF49A01F801E9
:10099000E20FF31F10822E96E4E00C948A07ABE07E
:1009A000B0E0E5EDF4E00C9460076C017B018A0196
:1009B000FC0117821682838181FFCCC1CE01019692
:1009C0003C01F6019381F70193FD859193FF81919D
:1009D0007F01882309F4BAC1853239F493FD8591EA
:1009E00093FF81917F01853229F4B60190E00E9446
:1009F000C606E7CF912C212C312CFFE1F315D8F05E
:100A00008B3279F038F4803279F08332A1F4232DDF
:100A100020611DC08D3261F0803369F4232D216087
:100A200016C0832D8260382EE32DE4603E2E2AC04E
:100A3000F32DF8601DC037FC2DC020ED280F2A30A3
:100A400040F08E32B9F436FC81C1232D2064322E61
:100A500019C036FE06C08AE0989E200D1124922E01
:100A600011C0EAE02E9E200D1124222EF32DF062FB
:100A70003F2E08C08C3621F4832D8068382E02C0AA
:100A8000883641F4F70193FD859193FF81917F01B1
:100A90008111B3CF982F9F7D9554933028F40C5F2C
:100AA0001F4F9FE399830DC0833631F0833771F078
:100AB000833509F059C021C0F801808189830E5F18
:100AC0001F4F88248394912C530113C02801F2E016
:100AD0004F0E511CF801A080B18036FE03C0692D75
:100AE00070E002C06FEF7FEFC5010E94BB064C01B2
:100AF0008201F32DFF773F2E16C0280122E0420E1F
:100B0000511CF801A080B18036FE03C0692D70E051
:100B100002C06FEF7FEFC5010E94B0064C01F32DBC
:100B2000F0683F2E820133FC1BC0822D90E08816B6
:100B30009906B0F4B60180E290E00E94C6062A94BD
:100B4000F4CFF50137FC859137FE81915F01B60145
:100B500090E00E94C60621102A9421E0821A910892
:100B60008114910471F7E8C0843611F0893641F59B
:100B7000F80137FE07C060817181828193810C5F2B
:100B80001F4F08C060817181072E000C880B990BE4
:100B90000E5F1F4FF32DFF763F2E97FF09C09095F4
:100BA0008095709561957F4F8F4F9F4FF0683F2ED6
:100BB0002AE030E0A3010E940207882E861845C073
:100BC000853731F4232D2F7EB22E2AE030E025C068
:100BD000932D997FB92E8F36C1F018F4883579F0AE
:100BE000B5C0803719F0883721F0B0C0E92FE06137
:100BF000BE2EB4FE0DC0FB2DF460BF2E09C034FE26
:100C00000AC0292F2660B22E06C028E030E005C0B9
:100C100020E130E002C020E132E0F801B7FE07C079
:100C200060817181828193810C5F1F4F06C060815A
:100C3000718180E090E00E5F1F4FA3010E940207C8
:100C4000882E8618FB2DFF773F2E36FE0DC0232DF4
:100C50002E7FA22E891458F434FE0BC032FC09C03A
:100C6000832D8E7EA82E05C0B82CA32C03C0B82CD3
:100C700001C0B92CA4FE0FC0FE01E80DF11D80815A
:100C8000803321F49A2D997EA92E09C0A2FE06C0B8
:100C9000B394B39404C08A2D867809F0B394A3FC6E
:100CA00011C0A0FE06C0B21488F4280C922C9B1828
:100CB0000EC0B21460F4B60180E290E00E94C60655
:100CC000B394F7CFB21418F42B1802C0982C212C2F
:100CD000A4FE10C0B60180E390E00E94C606A2FE0A
:100CE00017C0A1FC03C088E790E002C088E590E04F
:100CF000B6010CC08A2D867859F0A1FE02C08BE2A5
:100D000001C080E2A7FC8DE2B60190E00E94C60619
:100D1000891438F4B60180E390E00E94C6069A94E4
:100D2000F7CF8A94F301E80DF11D8081B60190E0C0
:100D30000E94C6068110F5CF222009F442CEB601EA
:100D400080E290E00E94C6062A94F6CFF6018681E2
:100D5000978102C08FEF9FEF2B96E2E10C947C0706
:100D6000FC010590615070400110D8F78095909576
:100D70008E0F9F1F0895FC0161507040019001107B
:100D8000D8F7809590958E0F9F1F08950F931F930E
:100D9000CF93DF93FB01238121FD03C08FEF9FEFF2
:100DA0002CC022FF16C0468157812481358142170D
:100DB000530744F4A081B1819D012F5F3F4F3183E0
:100DC00020838C93268137812F5F3F4F3783268383
:100DD00014C08B01EC01FB010084F185E02D099525
:100DE000892BE1F6D80116968D919C911797019663
:100DF00017969C938E931697CE01DF91CF911F91FA
:100E00000F910895FA01AA27283051F1203181F17C
:100E1000E8946F936E7F6E5F7F4F8F4F9F4FAF4F02
:100E2000B1E03ED0B4E03CD0670F781F891F9A1F15
:100E3000A11D680F791F8A1F911DA11D6A0F711DC9
:100E4000811D911DA11D20D009F468943F912AE0D5
:100E5000269F11243019305D3193DEF6CF010895BD
:100E6000462F4770405D4193B3E00FD0C9F7F6CFEE
:100E7000462F4F70405D4A3318F0495D31FD4052B6
:100E8000419302D0A9F7EACFB4E0A695979587954C
:100E900077956795BA95C9F700976105710508952B
:100EA0009B01AC010A2E06945795479537952795D7
:100EB000BA95C9F7620F731F841F951FA01D08956F
:100EC0002F923F924F925F926F927F928F929F925A
:100ED000AF92BF92CF92DF92EF92FF920F931F9348
:100EE000CF93DF93CDB7DEB7CA1BDB0B0FB6F894F9
:100EF000DEBF0FBECDBF09942A88398848885F8439
:100F00006E847D848C849B84AA84B984C884DF80A9
:100F1000EE80FD800C811B81AA81B981CE0FD11D8D
:100F20000FB6F894DEBF0FBECDBFED010895F89463
:020F3000FFCFF1
:100F32004361706163697479002564206D6963722D
:100F42006F466172616473002564206E616E6F4644
:060F52006172616473008E
:00000001FF
